:020000040000FA
:10000000000000EB2E0000EB2C008FE2000C90E8CB
:1000100000A08AE000B08BE001704AE20B005AE1D8
:100020000000001A260000EB0F00BAE818E04FE2CB
:10003000010013E303F0471013FF2FE13802000023
:1000400058020000102052E27800B0287800A12861
:10005000FBFFFF8A822EB0E13000B0283000A128DB
:1000600000409045004081451EFF2FE10030B0E385
:100070000040B0E30050B0E30060B0E3102052E273
:100080007800A128FCFFFF8A822EB0E13000A12871
:10009000003081451EFF2FE101C08FE21CFF2FE1E0
:1000A0001FB5059886460FBC009C02B07047000043
:1000B00001C08FE21CFF2FE130B47546AE4630BC64
:1000C000704700001A0000EB0210A0E1F1FFFFEB07
:1000D0001CC09FE50FC08CE001001CE30DE08F12F7
:1000E0000FE0A0011CFF2FE101C08FE21CFF2FE1F8
:1000F00000F050F8F00000007847C04603002DE9FA
:10010000EAFFFFEB0300BDE8290000EB0C009FE5D0
:100110000C109FE504209FE508309FE51EFF2FE1AE
:100120006800004068040040680000407047704765
:10013000704700000E50A0E11A0000EB05E0A0E1BE
:100140000050B0E10D10A0E10A30A0E10700C0E3CB
:1001500000D0A0E160D08DE220402DE9EAFFFFEB66
:100160002040BDE80060A0E30070A0E30080A0E3B1
:1001700000B0A0E30710C1E305C0A0E1C009ACE8EE
:10018000C009ACE8C009ACE8C009ACE801D0A0E106
:100190001EFF2FE110B50400C046C0462000FFF747
:1001A000ABFF10BC08BC184700009FE51EFF2FE105
:1001B0000400004001C08FE21CFF2FE1014918201C
:1001C000ABDFFEE7260002001EFF2FE1010CA0E3DB
:1001D00090109FE5080081E5210000EA010CA0E3F2
:1001E00080109FE50C0081E50000A0E378109FE5FA
:1001F000000081E5040000EA6C009FE5000090E546
:10020000010080E260109FE5000081E558009FE555
:10021000000090E554109FE5010050E1F5FFFF3A22
:10022000010CA0E33C109FE5040081E50000A0E381
:1002300034109FE5000081E5040000EA28009FE5F6
:10024000000090E5010080E21C109FE5000081E5C0
:1002500014009FE5000090E510109FE5010050E1BB
:10026000F5FFFF3ADCFFFFEA008002E000000040FB
:1002700020A10700940200000000004004000000DC
:10028000440000009802000004000040EC0400005C
:080290006C00000000000000FA
:0400000500000000F7
:00000001FF
